:020000040000FA
:0400000001EF0EF00E
:10060000003F065B4F666D7D077F6F777C395E79B3
:1006100071554C445253584142597300000E506E6C
:10062000000E536E000E4F6E000E526E010EAAECBD
:100630000EF001680268000E5D6E320E5C6E40EFD7
:1006400004F0000E426E010E416EABEC0BF0800E1A
:10065000AAEC0EF0030E496E000E4A6E88EC0DF007
:10066000000E4A6E000E496E000E4C6E090E4B6E67
:10067000E4EC0DF00B0E496E000E4A6E88EC0DF0A6
:10068000C00EAAEC0EF0130E496E000E4A6E88ECF6
:100690000DF0000E4A6E010E496E000E4C6E090EF2
:1006A0004B6EE4EC0DF01B0E496E000E4A6E88ECAA
:1006B0000DF0010E506E18EF04F0FCEC09F003ECA5
:1006C0000CF0516EFCEC09F003EC0CF05118D8B4AE
:1006D0006CEF03F06EEF03F0A5EF03F084EF03F08F
:1006E000000E4F6EA5EF03F0000E526EA5EF03F063
:1006F000010E4F6EA5EF03F0010E526EA5EF03F051
:10070000010E646EA5EF03F051504D6E4E6A4E50CF
:10071000000AD8B48EEF03F0A5EF03F04D50440A61
:10072000D8B478EF03F0080AD8B474EF03F01E0AC7
:10073000D8B47CEF03F0010AD8B480EF03F0060AC6
:10074000D8B470EF03F0A5EF03F04F50D8A4ABEF8F
:1007500003F0ADEF03F0C5EF03F05204D8A4B3EFFC
:1007600003F0B5EF03F0BDEF03F03C0E0F6E000E8B
:10077000026E010E016EDBEF03F03C0E076E000E01
:10078000026E000E016EDBEF03F05204D8A4CBEF33
:1007900003F0CDEF03F0D5EF03F03C0E1F6E000E1B
:1007A000026E030E016EDBEF03F03C0E176E000EBF
:1007B000026E020E016E000E536E53504D6E4E6A65
:1007C00001504D1809E102504E18D8B4EAEF03F079
:1007D000ECEF03F0F6EF03F05350080D070EF3248F
:1007E000D96E000EF420DA6E200EDF6E532A030E4F
:1007F0005364FDEF03F0FFEF03F0DDEF03F0000EB5
:10080000506E18EF04F050504D6E4E6A4E50000A74
:10081000D8B40DEF04F0FFEF03F04D50000AD8B448
:1008200021EF03F0010AD8B45DEF03F0FFEF03F00E
:10083000000E3C6E180E3B6E000E3E6E000E3D6EBE
:1008400049EC04F0000E3C6E190E3B6E000E3E6E3D
:10085000000E3D6E49EC04F0000E3C6E1A0E3B6E2D
:10086000000E3E6E000E3D6E49EC04F0000E3C6E34
:100870001B0E3B6E000E3E6E000E3D6E49EC04F00A
:100880006450D8B446EF04F048EF04F003EF04F0EE
:1008900012003CBE57EF04F03C5007E1080E3B5CF1
:1008A000D8B055EF04F057EF04F081EF04F03D505D
:1008B0003E10D8B45EEF04F060EF04F070EF04F087
:1008C0003BC03FF0010E406E3F2A69EF04F0D89024
:1008D00040363F2E67EF04F0405080126FEF05F076
:1008E0003BC03FF0010E406E3F2A79EF04F0D890F4
:1008F00040363F2E77EF04F04050FF0A80166FEF2E
:1009000005F03CBE8FEF04F03C5007E1100E3B5C5D
:10091000D8B08DEF04F08FEF04F0BDEF04F0F80EC7
:100920003B26FF0E3C223D503E10D8B49AEF04F017
:100930009CEF04F0ACEF04F03BC03FF0010E406EC2
:100940003F2AA5EF04F0D89040363F2EA3EF04F0E5
:10095000405081126FEF05F03BC03FF0010E406E3A
:100960003F2AB5EF04F0D89040363F2EB3EF04F0A5
:100970004050FF0A81166FEF05F03CBECBEF04F04C
:100980003C5007E1180E3B5CD8B0C9EF04F0CBEF48
:1009900004F0F9EF04F0F00E3B26FF0E3C223D5030
:1009A0003E10D8B4D6EF04F0D8EF04F0E8EF04F02E
:1009B0003BC03FF0010E406E3F2AE1EF04F0D890BB
:1009C00040363F2EDFEF04F0405082126FEF05F00B
:1009D0003BC03FF0010E406E3F2AF1EF04F0D8908B
:1009E00040363F2EEFEF04F04050FF0A82166FEFC3
:1009F00005F03CBE07EF05F03C5007E1200E3B5CE4
:100A0000D8B005EF05F007EF05F035EF05F0E80E7B
:100A10003B26FF0E3C223D503E10D8B412EF05F0AD
:100A200014EF05F024EF05F03BC03FF0010E406EDF
:100A30003F2A1DEF05F0D89040363F2E1BEF05F002
:100A4000405083126FEF05F03BC03FF0010E406E47
:100A50003F2A2DEF05F0D89040363F2E2BEF05F0C2
:100A60004050FF0A83166FEF05F03CBE43EF05F0E0
:100A70003C5007E1280E3B5CD8B041EF05F043EF56
:100A800005F06FEF05F0E00E3B26FF0E3C223D50D7
:100A90003E10D8B44EEF05F050EF05F060EF05F0D2
:100AA0003BC03FF0010E406E3F2A59EF05F0D89051
:100AB00040363F2E57EF05F0405084126FEF05F09F
:100AC0003BC03FF0010E406E3F2A69EF05F0D89021
:100AD00040363F2E67EF05F04050FF0A84161200A3
:100AE0003CBE7EEF05F03C5007E1080E3B5CD8B001
:100AF0007CEF05F07EEF05F0A8EF05F03D503E10CD
:100B0000D8B485EF05F087EF05F097EF05F03BC00F
:100B10003FF0010E406E3F2A90EF05F0D89040362E
:100B20003F2E8EEF05F04050921296EF06F03BC03C
:100B30003FF0010E406E3F2AA0EF05F0D8904036FE
:100B40003F2E9EEF05F04050FF0A921696EF06F0FA
:100B50003CBEB6EF05F03C5007E1100E3B5CD8B050
:100B6000B4EF05F0B6EF05F0E4EF05F03D503E10B0
:100B7000D8B4BDEF05F0BFEF05F0D1EF05F03BC0F5
:100B80003FF0F80E3F26010E406E3F2ACAEF05F0F7
:100B9000D89040363F2EC8EF05F04050931296EFA4
:100BA00006F03BC03FF0F80E3F26010E406E3F2A94
:100BB000DCEF05F0D89040363F2EDAEF05F04050DC
:100BC000FF0A931696EF06F03CBEF2EF05F03C509C
:100BD00007E1180E3B5CD8B0F0EF05F0F2EF05F03E
:100BE00020EF06F03D503E10D8B4F9EF05F0FBEFD2
:100BF00005F00DEF06F03BC03FF0F00E3F26010E72
:100C0000406E3F2A06EF06F0D89040363F2E04EFA4
:100C100006F04050941296EF06F03BC03FF0F00E05
:100C20003F26010E406E3F2A18EF06F0D89040365E
:100C30003F2E16EF06F04050FF0A941696EF06F08E
:100C40003CBE2EEF06F03C5007E1200E3B5CD8B0D6
:100C50002CEF06F02EEF06F05CEF06F03D503E1054
:100C6000D8B435EF06F037EF06F049EF06F03BC099
:100C70003FF0E80E3F26010E406E3F2A42EF06F09D
:100C8000D89040363F2E40EF06F04050951296EF38
:100C900006F03BC03FF0E80E3F26010E406E3F2AB3
:100CA00054EF06F0D89040363F2E52EF06F04050F9
:100CB000FF0A951696EF06F03CBE6AEF06F03C5030
:100CC00007E1280E3B5CD8B068EF06F06AEF06F04B
:100CD00096EF06F03D503E10D8B471EF06F073EF7A
:100CE00006F085EF06F03BC03FF0E00E3F26010E18
:100CF000406E3F2A7EEF06F0D89040363F2E7CEFC4
:100D000006F04050961296EF06F03BC03FF0E00E22
:100D10003F26010E406E3F2A90EF06F0D8904036F5
:100D20003F2E8EEF06F04050FF0A96161200000E7E
:100D3000516E000E4F6E010EAAEC0EF001C04DF088
:100D400002C04EF0D8904D364E36D8904D364E36C5
:100D5000D8904D364E36070E4D24D96E000E4E20DB
:100D6000DA6E200EDF6E200E296E000E506E9EEFA2
:100D700007F0000E426E020E416EABEC0BF0000E5F
:100D80004A6E000E496E000E4C6E050E4B6EE4EC82
:100D90000DF001C04DF002C04EF0D8904D364E36E9
:100DA000D8904D364E36D8904D364E36030E4D24E3
:100DB000496E000E4E204A6E88EC0DF0C00EAAEC73
:100DC0000EF02B0E496E000E4A6E88EC0DF0000EF0
:100DD0004A6E010E496E000E4C6E090E4B6EE4EC2D
:100DE0000DF0230E496E000E4A6E88EC0DF0010ED8
:100DF000506E76EF07F0FCEC09F003EC0CF0516E4E
:100E0000FCEC09F032EF07F0000E4F6E4BEF07F0ED
:100E1000010E4F6E4BEF07F003EC0CF05118D8B4F5
:100E200014EF07F016EF07F04BEF07F03C0E291810
:100E3000D8A41DEF07F01FEF07F023EF07F0000E17
:100E4000646E4BEF07F03C0E3018D8A42AEF07F081
:100E50002CEF07F030EF07F0020E646E4BEF07F057
:100E60004BEF07F051504D6E4E6A4E50000AD8B409
:100E70003CEF07F04BEF07F04D504C0AD8B404EFAD
:100E800007F01E0AD8B408EF07F0010AD8B40CEF37
:100E900007F04BEF07F04F50D8A451EF07F053EF96
:100EA00007F059EF07F0200E296E3C0E306E5DEF13
:100EB00007F0200E306E3C0E296E000E506E76EF5D
:100EC00007F050504D6E4E6A4E50000AD8B46BEF8A
:100ED00007F05DEF07F04D50000AD8B4B9EF06F007
:100EE000010AD8B4FBEF06F05DEF07F0000E3C6E90
:100EF000180E3B6E000E3E6E000E3D6E49EC04F087
:100F0000000E3C6E190E3B6E000E3E6E000E3D6EE6
:100F100049EC04F0000E3C6E1A0E3B6E000E3E6E65
:100F2000000E3D6E49EC04F0000E3C6E1B0E3B6E55
:100F3000000E3E6E000E3D6E49EC04F06404D8B421
:100F4000A4EF07F0A6EF07F061EF07F01200000E24
:100F5000506E010EAAEC0EF0000E4F6E3C0E296E84
:100F6000800EAAEC0EF0230E496E000E4A6E88EC3D
:100F70000DF05CEF08F04E0E3C6E200E3B6E8AECDE
:100F80000EF043EF08F003EC0CF0506EFCEC09F0AF
:100F900003EC0CF05018D8B4D0EF07F0D2EF07F004
:100FA000DDEF07F0530E5018D8A4D9EF07F0DBEFB0
:100FB00007F0DDEF07F0010E646E010E4F6E58EF83
:100FC00008F0000E3C6E000E3B6EF4EC0CF03BC0E3
:100FD0005CF03CC05DF05CC03BF05DC03CF0000EDE
:100FE0003E6E0A0E3D6E97EC0AF03BC05CF03CC0D2
:100FF0005DF0030E496E5CC043F05DC044F0000E2E
:10100000466E0A0E456E53EC0BF043509DEC0CF00F
:10101000020E496E000E3E6E0A0E3D6E5CC03BF045
:101020005DC03CF097EC0AF03BC043F03CC044F09C
:10103000000E466E0A0E456E53EC0BF043509DECCD
:101040000CF0010E496E000E3E6E640E3D6E5CC0EB
:101050003BF05DC03CF097EC0AF03BC043F03CC075
:1010600044F0000E466E0A0E456E53EC0BF04350F2
:101070009DEC0CF0000E496E000E9DEC0CF0000E85
:101080004F6E58EF08F04F504D6E4E6A4E50000AAA
:10109000D8B44DEF08F03FEF08F04D50000AD8B437
:1010A000C3EF07F0010AD8B4E1EF07F03FEF08F013
:1010B00091EC08F0B9EC0EF0020E6418D8B463EFAE
:1010C00008F065EF08F0BBEF07F0000E3C6E180E5D
:1010D0003B6E000E3E6E000E3D6E49EC04F0000EBD
:1010E0003C6E190E3B6E000E3E6E000E3D6E49ECDE
:1010F00004F0000E3C6E1A0E3B6E000E3E6E000EAB
:101100003D6E49EC04F0000E3C6E1B0E3B6E000E73
:101110003E6E000E3D6E49EC04F0010EAAEC0EF09E
:101120001200000E3C6E180E3B6E000E3E6E000E5E
:101130003D6E49EC04F0000E3C6E190E3B6E000E45
:101140003E6E000E3D6E49EC04F0000E3C6E1A0E31
:101150003B6E000E3E6E000E3D6E49EC04F0000E3C
:101160003C6E1B0E3B6E000E3E6E000E3D6E49EC5B
:1011700004F0000E426E000E416E1CEC0DF029EFE3
:1011800009F0010E6124F66EF76A060EF7220800D8
:10119000F550416E426A1CEC0DF0000E3C6E180ECC
:1011A0003B6E000E3E6E010E3D6E49EC04F0010EEA
:1011B000626E46EF09F0010E6024F66EF76A060EC5
:1011C000F7220800F550416E426A1CEC0DF0000E4B
:1011D0003C6E190E3B6E000E3E6E010E3D6E49ECEC
:1011E00004F0020E626E46EF09F0010E5F24F66E07
:1011F000F76A060EF7220800F550416E426A1CECB1
:101200000DF0000E3C6E1A0E3B6E000E3E6E010E8F
:101210003D6E49EC04F0030E626E46EF09F0010EDC
:101220005E24F66EF76A060EF7220800F550416E4E
:10123000426A1CEC0DF0000E3C6E1B0E3B6E000E65
:101240003E6E010E3D6E49EC04F0000E626E46EFFC
:1012500009F06250446E456A4550000AD8B433EF35
:1012600009F025EF09F04450000AD8B4C1EF08F0A6
:10127000010AD8B4DBEF08F0030AD8B4F5EF08F0A0
:10128000010AD8B40FEF09F025EF09F012003CBEB7
:1012900055EF09F03C5007E1080E3B5CD8B053EF26
:1012A00009F055EF09F069EF09F03BC03DF0010E80
:1012B0003E6E3D2A5EEF09F0D8903E363D2E5CEF43
:1012C00009F03E5080143F6E3F503B6E3C6AFBEF8E
:1012D00009F03CBE77EF09F03C5007E1100E3B5C93
:1012E000D8B075EF09F077EF09F08DEF09F03BC04A
:1012F0003DF0F80E3D26010E3E6E3D2A82EF09F0CC
:10130000D8903E363D2E80EF09F03E5081143F6E5E
:101310003F503B6E3C6AFBEF09F03CBE9BEF09F08F
:101320003C5007E1180E3B5CD8B099EF09F09BEFF9
:1013300009F0B1EF09F03BC03DF0F00E3D26010E83
:101340003E6E3D2AA6EF09F0D8903E363D2EA4EF22
:1013500009F03E5082143F6E3F503B6E3C6AFBEFFB
:1013600009F03CBEBFEF09F03C5007E1200E3B5CAA
:10137000D8B0BDEF09F0BFEF09F0D5EF09F03BC0E1
:101380003DF0E80E3D26010E3E6E3D2ACAEF09F003
:10139000D8903E363D2EC8EF09F03E5083143F6E84
:1013A0003F503B6E3C6AFBEF09F03CBEE3EF09F0B7
:1013B0003C5007E1280E3B5CD8B0E1EF09F0E3EFC9
:1013C00009F0F9EF09F03BC03DF0E00E3D26010EBB
:1013D0003E6E3D2AEEEF09F0D8903E363D2EECEF02
:1013E00009F03E5084143F6E3F503B6E3C6AFBEF69
:1013F00009F03B683C681200000E596E000E586EF2
:10140000000E486E000E476E48BE10EF0AF04850BE
:1014100009E1050E475CD8A010EF0AF012EF0AF0C0
:1014200014EF0AF075EF0AF047C044F0030E4426AB
:10143000010E456E000E466E442A22EF0AF0D89047
:1014400045364636442E1FEF0AF045C041F046C0EF
:1014500042F01CEC0DF0000E3C6E0A0E3B6E47ECA9
:1014600009F03B503C10D8B438EF0AF03AEF0AF0DC
:101470004DEF0AF047C044F0010E456E000E466E77
:10148000442A46EF0AF0D89045364636442E43EFBC
:101490000AF04550581246505912000E3C6E090E83
:1014A0003B6E47EC09F03B503C10D8B45AEF0AF0C1
:1014B0005CEF0AF071EF0AF047C044F0050E4426D5
:1014C000010E456E000E466E442A6AEF0AF0D8906F
:1014D00045364636442E67EF0AF0455058124650BE
:1014E0005912474A482A04EF0AF05850561807E1A3
:1014F00059505718D8A47FEF0AF081EF0AF084EF13
:101500000AF063068AEF0AF0010E636E58C056F0C7
:1015100059C057F06350D8A490EF0AF092EF0AF048
:1015200096EF0AF056C05AF057C05BF01200000E5A
:10153000406E3EBEA0EF0AF09EEF0AF0A6EF0AF062
:101540003D6C3E1ED8B03E2A010E406E3CBEADEF53
:101550000AF0ABEF0AF0B3EF0AF03B6C3C1ED8B0D8
:101560003C2A010E401A000E426E000E416E3D50A4
:101570003E10D8B4BEEF0AF0C0EF0AF0E8EF0AF070
:10158000010E3F6EC8EF0AF0D8903D363E363F2A36
:101590003EAECDEF0AF0CFEF0AF0C4EF0AF0D890DC
:1015A000413642363D503B5C3E503C58D8A0DBEFC4
:1015B0000AF0DDEF0AF0E2EF0AF03D503B5E3E50EC
:1015C0003C5A4180D8903E323D323F2ECFEF0AF058
:1015D0004050D8B4EEEF0AF0F0EF0AF0F4EF0AF062
:1015E000416C421ED8B0422A41C03BF042C03CF0A0
:1015F0001200000E3C6E1C0E3B6E000E3E6E000E86
:101600003D6E70EC05F0000E3C6E1D0E3B6E000E44
:101610003E6E000E3D6E70EC05F0A8EC0DF0000E75
:101620003C6E0F0E3B6E35EC0EF0000E456E000E5C
:10163000446E030E77EC0EF0000E3C6E050E3B6E12
:1016400035EC0EF0000E456E000E446E030E77EC86
:101650000EF0000E3C6EA00E3B6EC5EC0EF0000EC0
:10166000456E000E446E030E77EC0EF0000E3C6EDD
:10167000A00E3B6EC5EC0EF0000E456E000E446EE3
:10168000020E77EC0EF0000E3C6E0A0E3B6E35EC4F
:101690000EF0280EAAEC0EF00C0EAAEC0EF0010EC5
:1016A000AAEC0EF01200000E486E44BE5CEF0BF088
:1016B0005AEF0BF062EF0BF0436C441ED8B0442A93
:1016C000010E486E46BE69EF0BF067EF0BF06DEF51
:1016D0000BF0456C461ED8B0462A45504610D8B48B
:1016E00074EF0BF076EF0BF09AEF0BF0010E476EF4
:1016F0007EEF0BF0D89045364636472A46AE83EF4C
:101700000BF085EF0BF07AEF0BF04550435C465041
:101710004458D8A08EEF0BF090EF0BF094EF0BF045
:101720004550435E4650445AD89046324532472E83
:1017300085EF0BF04850D8B4A0EF0BF0A2EF0BF000
:10174000A6EF0BF0436C441ED8B0442A43C043F0CC
:1017500044C044F0120041A0B0EF0BF0B2EF0BF028
:10176000BEEF0BF0000E3C6E180E3B6E000E3E6E90
:10177000010E3D6E49EC04F0C8EF0BF0000E3C6E1C
:10178000180E3B6E000E3E6E000E3D6E49EC04F0EE
:1017900041A2CDEF0BF0CFEF0BF0DBEF0BF0000E23
:1017A0003C6E190E3B6E000E3E6E010E3D6E49EC16
:1017B00004F0E5EF0BF0000E3C6E190E3B6E000ED0
:1017C0003E6E000E3D6E49EC04F041A4EAEF0BF0D2
:1017D000ECEF0BF0F8EF0BF0000E3C6E1A0E3B6EC8
:1017E000000E3E6E010E3D6E49EC04F002EF0CF06F
:1017F000000E3C6E1A0E3B6E000E3E6E000E3D6EED
:1018000049EC04F01200000E3F6E000E3E6E3EC02A
:101810003BF0010E3C6E000E3D6E3B2A13EF0CF0C8
:10182000D8903C363D363B2E10EF0CF05A503C160B
:101830005B503D163C503D10D8B421EF0CF023EF27
:101840000CF02DEF0CF0110E3E24F66E060E3F202C
:10185000F76E0800F5503EEF0CF03E4A3F2A3FBEBF
:101860003BEF0CF03F5009E10A0E3E5CD8A03BEF85
:101870000CF03DEF0CF007EF0CF0000E1200F9EC4D
:101880000AF01CEC0EF0C9EC0CF043EC0DF0C1ECCE
:101890000EF055EF0CF00EEC03F055EF0CF097EC5A
:1018A00006F055EF0CF0A7EC07F06450546E556A43
:1018B0005550000AD8B45FEF0CF055EF0CF05450BF
:1018C000000AD8B44BEF0CF0010AD8B44FEF0CF07B
:1018D000030AD8B453EF0CF055EF0CF000EF00F012
:1018E000476E47C046F0463A0F0E46164650416EC8
:1018F000426A1CEC0DF0000E3C6E1D0E3B6E44C0A7
:101900003DF045C03EF049EC04F067EC0DF047C0F7
:1019100046F00F0E46164650416E426A1CEC0DF022
:10192000000E3C6E1D0E3B6E44C03DF045C03EF0C7
:1019300049EC04F067EC0DF012004A6E4950D8A44F
:10194000A4EF0CF0A6EF0CF0A8EF0CF04AC061F089
:101950004904D8A4AEEF0CF0B0EF0CF0B2EF0CF0ED
:101960004AC060F0020E4918D8A4B9EF0CF0BBEFE2
:101970000CF0BDEF0CF04AC05FF0030E4918D8A47C
:10198000C4EF0CF0C6EF0CF0C8EF0CF04AC05EF0EC
:101990001200000E3C6E180E3B6E000E3E6E000EE6
:1019A0003D6E70EC05F0000E3C6E190E3B6E000EA5
:1019B0003E6E000E3D6E70EC05F0000E3C6E1A0E91
:1019C0003B6E000E3E6E000E3D6E70EC05F0000E9C
:1019D0003C6E1B0E3B6E000E3E6E000E3D6E70ECBC
:1019E00005F0A8EC0DF01200C30EC2163C5007E142
:1019F000030E3B5CD8B0FFEF0CF001EF0DF005EFEC
:101A00000DF03B44E846FC0BC212C282C2B20BEF9F
:101A10000DF00DEF0DF006EF0DF0C4CF3DF03E6A76
:101A20003D503E6E3D6AC3503D26000E3E223DC0F5
:101A30003BF03EC03CF01200000E3C6E080E3B6EC8
:101A4000000E3E6E000E3D6E49EC04F0000E436E3B
:101A5000000E3C6E1E0E3B6E800E41143D6E3E6AC3
:101A600049EC04F062EC0EF0D89041364236432A3D
:101A7000070E43643EEF0DF040EF0DF028EF0DF040
:101A80004DEC0EF01200000E3C6E000E3B6E000E90
:101A90003E6E010E3D6E70EC05F0000E3C6E010EC8
:101AA0003B6E000E3E6E010E3D6E70EC05F0000EBA
:101AB0003C6E020E3B6E000E3E6E010E3D6E70ECF3
:101AC00005F0C2800C0EC16EAA0EC06E1200000E90
:101AD0003C6E1C0E3B6E000E3E6E010E3D6E49ECE0
:101AE00004F0000E3C6E050E3B6EC5EC0EF0000ED1
:101AF0003C6E1C0E3B6E000E3E6E000E3D6E49ECC1
:101B000004F0000E3C6E050E3B6EC5EC0EF01200AC
:101B1000000E4C6E000E4B6E99EF0DF04B504924A9
:101B2000D96E4C504A20DA6EDF509BEC0EF04B4AD7
:101B30004C2A4B504924D96E4C504A20DA6EDF5063
:101B4000D8A4A5EF0DF0A7EF0DF08EEF0DF0120069
:101B5000000E3C6E1F0E3B6E000E3E6E000E3D6E84
:101B600070EC05F0000E3C6E080E3B6E000E3E6EF3
:101B7000000E3D6E70EC05F0000E3C6E1E0E3B6ECE
:101B8000000E3E6E000E3D6E70EC05F01200FFFF81
:101B900046554C4C000000004C45475300000000E7
:101BA0004241434B0000000041524D5300000000F1
:101BB00052455455524E0000504F574552000000B8
:101BC000000000000000000049504A10D8A4EBEFCC
:101BD0000DF0EDEF0DF0F2EF0DF04B500F0B800F0D
:101BE000AAEC0EF049044A10D8A4F9EF0DF0FBEF6F
:101BF0000DF000EF0EF04B500F0BC00FAAEC0EF0E3
:101C000012008E0EF66E1B0EF76E000EF86E00EED2
:101C100001F010EE3AF00900F5CFEEFFE550E1508B
:101C2000FAE100EE56F00F0EEE6AE806FDE1000E56
:101C3000F86E00013FEF0CF0A8EC0DF0000E3C6ECA
:101C40000A0E3B6E000E3E6E010E3D6E70EC05F00E
:101C5000000E3C6E090E3B6E000E3E6E010E3D6E98
:101C600070EC05F00C0EC16E1200000E3F6E000EFF
:101C70003E6E3DEF0EF03E4A3F2A3B503E5C3F50E9
:101C8000800A3D6E3C50800A3D58D8A04AEF0EF0C5
:101C90004CEF0EF03BEF0EF01200000E3C6E1F0EEC
:101CA0003B6E000E3E6E010E3D6E49EC04F0000EE0
:101CB0003C6E1F0E3B6E000E3E6E000E3D6E49ECFC
:101CC00004F01200000E3C6E080E3B6E000E3E6EDD
:101CD000010E3D6E49EC04F0000E3C6E080E3B6EAA
:101CE000000E3E6E000E3D6E49EC04F01200466E92
:101CF00046C041F0426A1CEC0DF0000E3C6E1D0E19
:101D00003B6E44C03DF045C03EF049EC04F067EC4A
:101D10000DF01200D8903B343D6E3C343E6E3D1EBB
:101D20003E1E320E3D5E000E3E5A3E50D76E3DC006
:101D3000D6FFF2941200486E000E456E010E446EFE
:101D4000485070EC0CF0000E3C6E500E3B6EC5EC33
:101D50000EF01200486E000E456E000E446E4850A4
:101D600070EC0CF0000E3C6E020E3B6E35EC0EF08B
:101D70001200F2A4BEEF0EF0C0EF0EF0B9EF0EF0BD
:0C1D80001200080ED56ED58E1200120065
:020000040020DA
:08000000FFFFFFFFFFFFFFFF00
:020000040030CA
:0E000000FF027100FF8380FF0FC00FE00F4072
:00000001FF
